:100000000C943C010C947D050C9456050C942F0522
:100010000C9408050C9464010C9464010C94E104A4
:100020000C9464010C9464010C94A4050C940B07CB
:100030000C9464010C9464010C9464010C946401AC
:100040000C9464010C9464010C9464010C9464019C
:100050000C9464010C9464010C9464010C94C40B22
:100060000C9464010C9464010C9464010C9464017C
:100070000C9464010C9464010C9464010C9464016C
:100080000C9464010C9464010C9464010C9464015C
:100090000C9464010C9464010C9464010C9464014C
:1000A0000C9464010C9464010C946401540B570B80
:1000B000460B4A0B4E0B780B780B780B5B0B5F0BE8
:1000C000630B690B6D0B780B730B000000000000D5
:1000D00000002A2B280000000000000000000000A3
:1000E000000000000000000000002C9EB4A0A1A2AF
:1000F000A434A6A7A5AE362D3738271E1F202122EF
:1001000023242526B333B62EB7B89F8485868788E7
:10011000898A8B8C8D8E8F909192939495969798D7
:10012000999A9B9C9D2F3130A3AD35040506070895
:10013000090A0B0C0D0E0F101112131415161718B7
:10014000191A1B1C1DAFB1B0B500080B000202024A
:100150000100090400000102020000052400100152
:1001600005240101010424020605240600010705F7
:10017000810310004009040100020A000000070585
:100180000202400000070583024000000403090446
:1001900012010002EF0201404123368000010102FA
:1001A000030141726475696E6F204C4C43004172CB
:1001B0006475696E6F204C656F6E6172646F0000CC
:1001C0000000002300260029002C002F0000000062
:1001D0000200090F0000030401000C0000000000F1
:1001E000000000000000000000000000000000000F
:1001F000250028002B002E00310000000000240004
:1002000027002A002D003000040404040403040520
:1002100002020202040302020202060606060606A3
:100220000404020202040404080201104080401089
:10023000204080408008020401804020100201100C
:1002400080102040402005010906A1018502050714
:1002500019E029E71500250175019508810295012E
:1002600075088103950675081500257305071900A3
:1002700029738100C0002B0D11241FBECFEFDAE0DF
:10028000DEBFCDBF11E0A0E0B1E0ECEEFAE102C0CC
:1002900005900D92A638B107D9F722E0A6E8B1E0A3
:1002A00001C01D92A135B207E1F711E0CCE3D1E026
:1002B00004C02197FE010E94690DCB33D107C9F715
:1002C0000E940E0C0C94740D0C9400000895409143
:1002D000AB015091AC012091A9013091AA014217C4
:1002E0005307B4F49091E8009570E1F39091E80021
:1002F00092FD19C08093F1008091AB019091AC0107
:1003000001968F739927892B19F48EEF8093E8005B
:100310008091AB019091AC0101969093AC018093D8
:10032000AB0181E0089580E00895DF92EF92FF92A3
:100330000F931F93CF93DF93D82EF92EE42E062F21
:1003400010E0C8010196880F0E94670183E00E94B7
:100350006701CD2DDF2D0C0F1D1FC017D10789F0B0
:10036000E7FE03C0FE01849101C088810E946701FD
:10037000F82E80E00E9467018F2121968111EDCF38
:1003800001C081E0DF91CF911F910F91FF90EF901D
:10039000DF900895DF92EF92FF920F931F93CF9318
:1003A000DF93D82E8A017B01E40EF51EEB01CE15FA
:1003B000DF0571F0D7FE03C0FE01849101C0888182
:1003C0000E94670121968111F2CF8FEF9FEF01C04C
:1003D000C801DF91CF911F910F91FF90EF90DF90B7
:1003E00008952FB7F89487708093E9009091E80002
:1003F000892F807295FF04C09091F20080E4891BE0
:100400002FBF0895615030F02091F100FC0120834E
:100410000196F8CF289884E68093B9010895CF9289
:10042000DF92EF92FF920F931F93CF93DF936C01B4
:100430007A018B01C0E0D0E0CE15DF0581F0D80154
:100440006D918D01D601ED91FC910190F081E02D2F
:10045000C6010995892B11F02196EECF7E01C701C7
:10046000DF91CF911F910F91FF90EF90DF90CF9090
:100470000895CF93DF931F92CDB7DEB76983DC0178
:10048000ED91FC910280F381E02D41E050E0BE014E
:100490006F5F7F4F09950F90DF91CF91089583E0B3
:1004A0008093E9008091F200882319F08AE3809319
:1004B000E800089583E00E94F10190E00895FC01B6
:1004C0008485958597FD0BC09FB7F89482E0809353
:1004D000E9008091F2009FBF90E0019608959FB7D8
:1004E000F89482E08093E9008091F2009FBF90E051
:1004F0000895DC01FB0112968C91129790E0248103
:10050000358182179307D1F491818081813A31F44A
:1005100081E0913091F0933089F411C0813271F40F
:100520009B3021F482811F968C9305C09A3031F460
:10053000828150968C9381E00895089580E008951B
:10054000DC01FB0188E4808389E4818384E4828385
:100550001D969C911D979F709F5B93831D968D9117
:100560009C911E9724E0969587952A95E1F78F70C8
:100570008F5B848385E00895EF92FF920F931F9322
:10058000CF93DF93FB012081213851F52381223263
:1005900039F5DC0112962C9130E0448155814217E7
:1005A0005307F1F4EC010B851C85E12CF12C0115AE
:1005B000110591F0F801448155816281738180E8D1
:1005C0000E94CA018F3FFFEF9F0769F0E80EF91EF6
:1005D000D8010D911C91EBCF81E08F87C70105C039
:1005E00080E090E002C08FEF9FEFDF91CF911F91ED
:1005F0000F91FF90EF900895CF93DF93CDB7DEB7C3
:1006000069970FB6F894DEBF0FBECDBFFC01DB01CA
:100610008C918F5F8C93BE016F5F7F4F89E1DB010F
:100620001D928A95E9F729E0298384E08A8391E085
:100630009D8383E08E832A8721E22B879C879D8779
:100640009F8722E2288B27E02B8B25E02C8B8E8B3B
:1006500020E430E0388F2F8B998F82818B839585B2
:100660008685998B8A8B838180688D8B49E150E0E8
:1006700080E00E94CA0169960FB6F894DEBF0FBEF3
:10068000CDBFDF91CF910895FC0182818F5BFB018B
:10069000808381E00895CF92DF92EF92FF920F93D3
:1006A0001F93CF93DF936C01EB017B01E40EF51EEA
:1006B00000E010E0CE15DF0581F069916D30D1F3D7
:1006C000D601ED91FC910190F081E02DC6010995D4
:1006D000892B19F00F5F1F4FEDCFC801DF91CF912C
:1006E0001F910F91FF90EF90DF90CF9008950895A4
:1006F00080E090E00895CF92DF92EF92FF920F9307
:100700001F938091B1010E942A0B9FB7F8944091EA
:10071000B5015091B6016091B7017091B8019FBFCA
:100720000091990110919A0120919B0130919C01B7
:100730006A017B01C01AD10AE20AF30A9701860115
:100740000B3F11052105310510F0109298014093DF
:10075000990150939A0160939B0170939C01909131
:1007600098019F5F909398019A3048F4923060F41A
:100770009130E9F510929701109296013AC09A30A3
:1007800099F09B30E9F033C090919601980F9093C7
:1007900096012091970130E035952795811180E8E9
:1007A000282B2093970125C090919601917089176D
:1007B00019F0909396011DC08DEF8093960119C09A
:1007C000809196018D3F98F48091B4018F5F8031C4
:1007D00008F080E09091B301891749F0E82FF0E02C
:1007E00090919701EA57FE4F90838093B401109245
:1007F00098011F910F91FF90EF90DF90CF90089597
:100800000E946F0D0F931F93CF93DF931F92CDB76D
:10081000DEB78C01FC018485958597FF0EC0CE0163
:1008200001960E94FC0A019719F4898190E002C0A8
:100830008FEF9FEFF80195878487F8018485958570
:100840000F90DF91CF911F910F910895CF93DF9378
:100850001F92CDB7DEB7FC018485958597FD05C055
:100860002FEF3FEF358724870BC0CE0101960E9402
:10087000FC0A019719F4898190E002C08FEF9FEF85
:100880000F90DF91CF910895EF92FF921F93CF9336
:10089000DF93EC01162F683818F0E8E7E60F23C065
:1008A000E62FF0E067FF0DC0E058F10981E090E02D
:1008B00001C0880FEA95EAF79C81892B8C83E0E0E0
:1008C00012C0E653FF4FE491E11107C081E090E0D0
:1008D0009B838A83E12CF12C3CC0E7FF04C08C8110
:1008E00082608C83EF778E818E1739F18F81E817C4
:1008F00021F18885E81709F18985E817F1F08A85E3
:10090000E817D9F08B85E817C1F0DE01169680E074
:1009100090E02D91211106C0DE01A80FB91F169697
:10092000EC930BC001968630910599F781E090E039
:100930009B838A83E12CF12C07C0CE0104960E9490
:10094000D00AEE24E394F12C183818F0E8E7E10F10
:100950001DC0E12FF0E017FF0EC0E058F10981E063
:1009600090E001C0880FEA95EAF780959C81892381
:100970008C83E0E00BC0E653FF4FE491EE23D1F00F
:10098000E7FF04C08C818D7F8C83EF77DE0186E0EA
:10099000EE2341F016969C911697E91303C0169624
:1009A0001C921697815011968111F2CFCE010496B8
:1009B0000E94D00AC701DF91CF911F91FF90EF9065
:1009C00008951F920F920FB60F9211242F933F9309
:1009D0004F935F936F937F938F939F93AF93BF9347
:1009E000EF93FF93E0911401F09115010995FF91A8
:1009F000EF91BF91AF919F918F917F916F915F9197
:100A00004F913F912F910F900FBE0F901F9018950F
:100A10001F920F920FB60F9211242F933F934F9373
:100A20005F936F937F938F939F93AF93BF93EF9356
:100A3000FF93E0911201F09113010995FF91EF915D
:100A4000BF91AF919F918F917F916F915F914F91E6
:100A50003F912F910F900FBE0F901F9018951F92EE
:100A60000F920FB60F9211242F933F934F935F93E2
:100A70006F937F938F939F93AF93BF93EF93FF9366
:100A8000E0911001F09111010995FF91EF91BF9153
:100A9000AF919F918F917F916F915F914F913F9116
:100AA0002F910F900FBE0F901F9018951F920F92CD
:100AB0000FB60F9211242F933F934F935F936F9331
:100AC0007F938F939F93AF93BF93EF93FF93E091A7
:100AD0000E01F0910F010995FF91EF91BF91AF9138
:100AE0009F918F917F916F915F914F913F912F9146
:100AF0000F900FBE0F901F9018951F920F920FB678
:100B00000F9211242F933F934F935F936F937F9393
:100B10008F939F93AF93BF93EF93FF93E0910C015B
:100B2000F0910D010995FF91EF91BF91AF919F91C8
:100B30008F917F916F915F914F913F912F910F9086
:100B40000FBE0F901F9018951F920F920FB60F9225
:100B500011248F939F938091E1009091E100937F06
:100B60009093E10083FF0FC01092E90091E0909311
:100B7000EB001092EC0092E39093ED001092BA011A
:100B800098E09093F00082FF20C093E09093E900FA
:100B90009091F200992319F09AE39093E8009091D4
:100BA000AE01992339F09091AE0191509093AE012E
:100BB000992389F19091B901992339F09091B90164
:100BC00091509093B901992341F184FF10C0809115
:100BD000E2008E7E81608093E2008091E1008F7E52
:100BE0008093E1008091AF018E7E806111C080FF13
:100BF00016C08091E2008E7E80618093E200809139
:100C0000E1008E7E8093E1008091AF018E7E816055
:100C10008093AF0104C05D9ACDCF289AD6CF9F9123
:100C20008F910F900FBE0F901F9018957F928F920B
:100C30009F92AF92BF92CF92DF92EF92FF920F936B
:100C40001F93CF93DF93C82E8B017A018091BA0155
:100C5000811103C08FEF9FEF74C08091AF0180FFBF
:100C600005C08091E00082608093E000CE2DDF2DF2
:100C7000D12C8AEFB82E8C2D8770982E8C2D8072F7
:100C8000882E8C2D8074782E9AE3A92E209719F443
:100C9000DD2009F451C08C2D0E94F10181110AC0A0
:100CA000BA94BB20B9F261E070E080E090E00E946D
:100CB0008A0BECCF282F30E0C217D3070CF48C2F0F
:100CC0009FB7F8949092E9002091E80025FF32C088
:100CD000282F30E0C21BD30B882029F08150A0F0D0
:100CE0001092F100FBCFF801C7FE0AC0815050F00E
:100CF00044914093F1003196F9CF41914093F10036
:100D00008150D8F7020F131FDD2019F0A092E800E0
:100D10000AC08091E80085FD08C0A092E800DD24AB
:100D2000D394209739F0D12C05C0209719F4711075
:100D3000A092E8009FBFAACF5D9884E68093AE01A1
:100D4000C701DF91CF911F910F91FF90EF90DF903E
:100D5000CF90BF90AF909F908F907F900895CF934A
:100D6000DF93EC0180910B01882331F083E00E9436
:100D700016061816190634F081E090E09B838A83EA
:100D800080E090E0DF91CF9108958091A1018111E1
:100D90000DC082E080939D0184E080939E011092BB
:100DA000A00110929F0181E08093A1018DE991E063
:100DB00008950F931F93CF93DF931F92CDB7DEB7A4
:100DC00082E0898342E450E06AE471E080E80E94B6
:100DD000CA010E94C506DC0112960D911C91139761
:100DE0000115110589F0D801ED91FC910280F38184
:100DF000E02DBE016F5F7F4FC801099597FD04C0CC
:100E0000F80100851185ECCF89810F90DF91CF919A
:100E10001F910F9108951F920F920FB60F921124F8
:100E2000CF92DF92EF92FF920F931F932F933F93F6
:100E30004F935F936F937F938F939F93AF93BF93E2
:100E4000EF93FF93CF93DF93CDB7DEB76C97DEBF01
:100E5000CDBF1092E9008091E80083FFFBC168E0FC
:100E6000CE0145960E94020282EF8093E8008D89B0
:100E700087FF05C09091E80090FFFCCF03C09EEF74
:100E80009093E800982F907609F0C6C09E894F890C
:100E9000588D2F89F88C91110CC0803829F48091DD
:100EA000B0018093F10002C01092F1001092F100A5
:100EB00045C1913051F4811141C14130510509F0D2
:100EC0003DC18091B0018D7F0BC0933061F48111E1
:100ED00035C14130510509F031C18091B0018260C6
:100EE0008093B0012BC1953049F48091E80080FFD8
:100EF000FCCF822F80688093E30020C1963009F0F8
:100F00005EC00B8D1C8D22E01092E9001092AC01A6
:100F10001092AB01F21232C01092AA011092A901F4
:100F20000E94D90699E0BE016F5F7F4FDB01E92F78
:100F30001D92EA95E9F79983FA8291E09E8390EAFF
:100F400098879AEF99872091AB013091AC01275F88
:100F50003F4F3C832B838D831092E9001092AC01AC
:100F60001092AB011093AA010093A90149E050E04F
:100F700080E00E94CA010E94D906E0C01093AA0135
:100F80000093A9010E94C506DC0112960D911C91E7
:100F900013970115110509F4BBC0D801ED91FC911F
:100FA0000480F581E02DBE016B5E7F4FC80109957D
:100FB000009709F0C7C0F80100851185EACF973086
:100FC00009F445C1983021F481E08093F100B6C066
:100FD000993009F0B3C0837009F039C1E7E1F1E05D
:100FE00081E031E096E32081211109C08EE78093F2
:100FF000EA001092EA008F898093BA019FC0809323
:10100000E9003093EB0021912093EC009093ED00E8
:101010008F5F873041F7EACF8B8D9C8D1092E9006E
:101020001092AC011092AB019093AA018093A90198
:10103000898D811153C08E899D89913A49F48132FD
:1010400009F005C147E050E064E071E080E0BBC01A
:10105000913209F0FCC0833269F48F89988DA0E049
:10106000B0E08093000190930101A0930201B0933E
:10107000030164C0803269F48091E80082FFFCCFF4
:1010800067E084E091E00E9402028BEF8093E80029
:1010900055C0823209F052C08F8980930B01EEEF68
:1010A000FFE7859194918B3F9C4D19F0E0E0F8E0CB
:1010B00002C0EEEFFAE08091040190910501A09149
:1010C0000601B0910701803B9440A105B10509F0EC
:1010D0009EC080910B0180FF79C099C00E94C50617
:1010E000FC01028113810115110509F4B0C0D8017A
:1010F000ED91FC910190F081E02DBE016B5E7F4F80
:10110000C801099581111AC0F80100851185EBCF3E
:10111000F1E0FF1609F44EC0F3E0FF1298C08F898A
:10112000882309F44AC0823089F440E860E18EEAFD
:1011300091E00E949501882309F489C08EEF809385
:10114000E80088C018161906CCF381C0813029F454
:1011500040E86BE082EA91E0ECCF833009F077C0A1
:101160000E94C506DC011296ED90FC9013978E014B
:101170000F5F1F4F6801E114F10479F0D701ED9181
:10118000FC910680F781E02DB801C7010995080F91
:10119000111DF701E084F184EECFD8011C92F60115
:1011A00001900020E9F73197BF016C197D0940E0FB
:1011B000C601BFCF60E971E002C06CE871E0FB01DD
:1011C000449150E080E80E94CA01B8CFEE3F2AE087
:1011D000F20751F0808191818737A7E79A0721F0C4
:1011E0009093FF0A8093FE0A87E797E791838083B5
:1011F000809160008093AD019BE088E10FB6F89488
:10120000A895809360000FBE9093600097CF808177
:1012100091818737974709F091CFA8958091600019
:101220008861809360008091AD0180936000EE3F03
:10123000BAE0FB0739F08091FE0A9091FF0A918392
:1012400080837CCF1092FF0A1092FE0A77CF81E252
:101250008093EB006C960FB6F894DEBF0FBECDBF47
:10126000DF91CF91FF91EF91BF91AF919F918F91BE
:101270007F916F915F914F913F912F911F910F91AE
:10128000FF90EF90DF90CF900F900FBE0F901F90C8
:1012900018953FB7F8948091260290912702A0916B
:1012A0002802B091290226B5A89B05C02F3F19F04E
:1012B0000196A11DB11D3FBFBA2FA92F982F8827D6
:1012C000820F911DA11DB11DBC01CD0142E0660F31
:1012D000771F881F991F4A95D1F7089581E0809361
:1012E0004402809345022AE432E03093470220937F
:1012F000460210924902109248022DE231E03093EA
:1013000041022093400210924C0210924B02109224
:101310004E0210924D0280934F028093500281EC56
:1013200080934A020E94C506FC01218180914402FB
:1013300090E0820F911D0897C4F5A281B3811097A8
:1013400029F480E492E0938382830EC018968D91F5
:101350009C911997009711F0DC01F8CF80E492E09E
:1013600019969C938E931897808180934202818175
:1013700080934302908180914502890F808380E0B1
:1013800090914402891788F4A0914602B0914702D7
:10139000A80FB11D9C91A181B0E0AA5EBE4F9C93A5
:1013A00091819F5F91838F5FEBCF0895FC01138242
:1013B000128221E231E03183208380913802811151
:1013C00013C0109233021092320286E492E090939E
:1013D0003502809334028FE290E09093370280933D
:1013E000360281E08093380280912A02811105C083
:1013F0000E946E0981E080932A02E0914B02F091F5
:101400004C02309739F482E392E090934C0280933F
:101410004B020AC080819181009711F0FC01FACF44
:1014200082E392E09183808320914D0230914E02BD
:101430008091360290913702820F931F90934E0253
:1014400080934D020895009769F0FC0101900020FF
:10145000E9F73197AF01481B590BBC018BEB91E0C9
:101460000C94AF0680E090E00895CF93DF9390E076
:10147000FC01E95DFD4F2491FC01E85FFD4F849183
:101480008823C1F090E0880F991FFC01E650FE4FC1
:10149000C591D491FC01E451FE4FA591B4919FB741
:1014A000F8948881322F309583238883EC91E22B46
:1014B000EC939FBFDF91CF9108958F929F92AF924F
:1014C000BF92CF92DF92EF92FF920F931F93CF9331
:1014D000DF93CDB7DEB7A1970FB6F894DEBF0FBE8E
:1014E000CDBF6B017C0197FF2BC06DE28BEB91E0D0
:1014F0000E9439028C0122273327A9012C193D09AA
:101500004E095F0919A2CE0181967C019AE0892ECD
:10151000912CA12CB12CCA01B901A50194010E9402
:10152000470D605DF70162937F012115310541058B
:10153000510589F7CF010E94230A800F911F1DC01A
:101540009B01AC0119A28E010F5D1F4F8AE0C82ECE
:10155000D12CE12CF12CCA01B901A70196010E94FE
:10156000470D605DF80162938F012115310541053A
:10157000510589F7CF010E94230AA1960FB6F8946E
:10158000DEBF0FBECDBFDF91CF911F910F91FF90B6
:10159000EF90DF90CF90BF90AF909F908F90089585
:1015A0000F931F93CF93DF931F92CDB7DEB78C01BC
:1015B00080912A02811105C00E946E0981E080930A
:1015C0002A0282E0898341E050E0BE016F5F7F4FD5
:1015D000809143020E94160697FD08C08091430245
:1015E00048E050E0B80180640E9416060F90DF9139
:1015F000CF911F910F9108952091BA01211103C03D
:101600008FEF9FEF08955FB7F89422E02093E900F1
:101610002091F20030E01216130614F421E030E0BD
:10162000422FFC0184E6415038F028988093B9019C
:101630009091F1009193F7CF2115310521F0809120
:10164000F200882319F05FBFC90108958BE68093EB
:10165000E800F9CF90E0FC01E353FE4F4491FC0118
:10166000E95DFD4F2491FC01E85FFD4F84918823E3
:1016700009F44DC04423E1F150E0FA013197EF3015
:10168000F105B0F5EA5AFF4F0C94690D9091800076
:101690009F7707C0909180009F7D03C0909180004C
:1016A000977F9093800024C094B59F7702C094B533
:1016B0009F7D94BD1DC0909190009F7707C0909131
:1016C00090009F7D03C090919000977F9093900031
:1016D0000FC09091C0009F7703C09091C0009F7D84
:1016E0009093C00005C09091C200977F9093C20074
:1016F000E82FF0E0EE0FFF1FE154FE4FA591B491EB
:10170000EC91E22381E090E021F480E0089580E014
:1017100090E008958F929F92AF92BF92CF92DF9206
:10172000EF92FF926B017C010E9449094B015C0121
:10173000C114D104E104F104F1F00E944909DC0173
:10174000CB0188199909AA09BB09883E9340A105D4
:10175000B10570F321E0C21AD108E108F10888EE62
:10176000880E83E0981EA11CB11CC114D104E104B1
:10177000F10419F7DDCFFF90EF90DF90CF90BF908D
:10178000AF909F908F9008951F920F920FB60F9277
:1017900011242F933F938F939F93AF93BF93809187
:1017A000B5019091B601A091B701B091B801309107
:1017B000250223E0230F2D3720F40196A11DB11D32
:1017C00005C026E8230F0296A11DB11D2093250216
:1017D0008093B5019093B601A093B701B093B8017F
:1017E0008091260290912702A0912802B0912902AF
:1017F0000196A11DB11D8093260290932702A0930C
:101800002802B0932902BF91AF919F918F913F9190
:101810002F910F900FBE0F901F901895789484B55C
:10182000826084BD84B5816084BD85B5826085BDDC
:1018300085B5816085BD80916E00816080936E006A
:10184000109281008091810082608093810080915C
:10185000810081608093810080918000816080930D
:10186000800080919100826080939100809191002E
:1018700081608093910080919000816080939000BE
:101880008091C10084608093C1008091C10082601A
:101890008093C1008091C10081608093C1008091DC
:1018A000C30081608093C3008091C00082608093F8
:1018B000C0008091C20081608093C20080917A0054
:1018C000846080937A0080917A00826080937A00AD
:1018D00080917A00816080937A0080917A0080689C
:1018E00080937A001092BA011092B0011092AF0169
:1018F0008091D70081608093D70080EA8093D800E0
:1019000089B5806189BD89B5826089BD09B400FE51
:10191000FDCF61E070E080E090E00E948A0B809152
:10192000D8008F7C80618093D8008091E000807F18
:101930008093E0008091E1008E7E8093E1008DE055
:101940008093E200559A209A8FEF9FEF9093C80101
:101950008093C701C0910B016AE070E080E090E0E5
:101960000E948A0BCC23B1F385E08093B10183E020
:101970000E94350A85E00E94350A1092B401109247
:10198000B3018BE793E090930D0180930C0180915C
:1019900069008C7F826080936900E89A87E00E94EA
:1019A000350A87E00E942A0B8C0181E001151105A0
:1019B00009F080E08093B2018CE591E00E94230A57
:1019C000012B19F081E591E002C087E491E00E94CB
:1019D000230A85E691E00E94230A00E010E080914E
:1019E000B4019091B301891B87FD805F882369F161
:1019F00060ED77E080E090E00E948A0BC0911702D2
:101A000088E691E00E94230A6C2F627070E080E00B
:101A100090E00E945D0A82E791E00E94230A6C2F09
:101A2000617070E080E090E00E945D0A8CE791E0D8
:101A30000E94230A6C2F647070E080E090E00E94A6
:101A40005D0A85E691E00E94230A0115110539F22D
:101A50000E940000C4CFEBEBF1E01382128288EE0B
:101A600093E0A0E0B0E084839583A683B78389E305
:101A700091E0918380838FEF9FEF958784878BE040
:101A800092E00E94D60988E192E00C94D609A1E286
:101A90001A2EAA1BBB1BFD010DC0AA1FBB1FEE1FE8
:101AA000FF1FA217B307E407F50720F0A21BB30B33
:101AB000E40BF50B661F771F881F991F1A9469F7AF
:101AC00060957095809590959B01AC01BD01CF010B
:101AD0000895EE0FFF1F0590F491E02D099481E029
:0C1AE00090E0F8940C94740DF894FFCF83
:101AEC00FFFFFFFF00E1000000000000660166013F
:101AFC0066016601660100C18081000000000000E3
:101B0C000044044B0378037703000000007902FCC7
:101B1C0002BC02A002000000003902AF065A024FBC
:101B2C00025F02260402045452414E534C41544568
:101B3C00005041535354524F5547480053746174ED
:101B4C0075733A20000D0A004350534C4F434B3AE7
:101B5C0020004E554D4C4F434B3A20005343524CB2
:061B6C004F434B3A20003C
:00000001FF
